:020000040800F2
:10000000A80C0020B9020008150300081503000819
:100010001503000815030008150300080000000080
:1000200000000000000000000000000015030008B0
:100030001503000800000000150300089D020008D9
:100040001503000815030008150300081503000830
:100050001503000815030008150300081503000820
:100060001503000815030008150300081503000810
:100070001503000815030008150300081503000800
:1000800015030008150300081503000815030008F0
:1000900015030008150300081503000815030008E0
:1000A00015030008150300081503000815030008D0
:1000B0001503000815030008810400081503000853
:1000C00015030008150300081503000815030008B0
:1000D00015030008150300081503000815030008A0
:1000E0001503000815030008150300081503000890
:1000F0001503000815030008150300081503000880
:10010000150300081503000815030008150300086F
:10011000150300081503000815030008150500085D
:10012000150300081503000815030008150300084F
:10013000150300081503000815030008150300083F
:10014000150300081503000815030008150300082F
:10015000150300081503000815030008150300081F
:10016000150300081503000815030008150300080F
:1001700015030008150300081503000815030008FF
:10018000150300081503000880B588B000AF0121F1
:10019000012000F033FA0121022000F02FFA0121A2
:1001A000042000F02BFA5023BB6101233B7700238E
:1001B0007B770023BB770223FB7707F118031946EF
:1001C000284800F06FFC1023BB6101233B7700231C
:1001D0007B770023BB770223FB7707F118031946CF
:1001E000214800F05FFC02233B77A023BB61002382
:1001F000BB7702237B7707F118031946194800F0F3
:1002000051FC05220521174800F010FD05220721A9
:10021000144800F00BFD01214FF4805000F02AFA41
:100220000023BB8000233B8100237B810023BB8113
:100230004FF40073FB8100233B8200237B820A235F
:10024000BB824FF48273FB803B1D1946074801F0C7
:10025000D3F80121054801F013F900BF2037BD464E
:1002600080BD00BF00000240000802400030014095
:1002700080B584B000AF786000F00CF90346FB60F5
:1002800000BF00F007F903461A46FB68D21A7B68E4
:100290009A42F6D300BF1037BD4680BD80B400AF90
:1002A000044B1B680133034A136000BFBD4680BC8A
:1002B000704700BF4000002080B582B000AF104BF7
:1002C0007B60104B3B6007E03B681A1D3A607A6820
:1002D000111D796012681A603B680B4A9342F3D390
:1002E0000A480B494FF000028842B8BF40F8042B7F
:1002F000FADB00F013F800BF0837BD4680BD00BF31
:10030000A45500080000002040000020400000200C
:10031000A404002080B400AFFEE700BF80B500AFAA
:1003200000F00AF900F0C0F800F0E0F8FFF72CFF49
:1003300000F06AF801F092F900F0ACF803469AB2C6
:10034000164B1A804FF48041154800F053FC4FF4CF
:100350000041134800F04EFC00F026F8114B1B78CA
:10036000012B02D100F00AFDF6E70E4B1B78022BA1
:1003700002D100F021FBEFE70A4B1B78032B02D1DF
:1003800000F04EFBE8E7074B1B78042B02D100F08E
:100390004DFBE1E700F08CF9DEE700BF5A000020DA
:1003A000000402404400002080B400AF134A134B05
:1003B0009B6843F08043936000BF104B1B6803F0C1
:1003C0000203002BF9D00D4B00221A600B4BDB6CA3
:1003D0009AB20B4B1A800A4B1A880A4BA3FB0213E2
:1003E000D9080B469B000B445B00D31A9AB2044B0E
:1003F0001A8000BFBD4680BC704700BF002101408D
:1004000058000020CDCCCCCC80B400AF194A194B99
:100410001B6B43F001031363174A174B1B6823F050
:1004200003031360144A144B1B6843F00303136067
:10043000104A104B5B6C43F4007353640F4A0F4B2C
:100440009B6823F0405393600C4A0C4B5B6B23F08A
:100450001F035363094A094B9B6843F002039360EF
:10046000064A064B9B6843F00103936000BFBD46FC
:1004700080BC70470038024000000240002101406B
:1004800080B500AF0121024801F092FC00BF80BDA1
:100490000008004080B400AF024B1B681846BD4600
:1004A00080BC70474800002080B584B000AF0121B7
:1004B000202000F0C1F80023FB8040F23F63BB80A6
:1004C0000A23BB603B1D1946074801F0C3FB01220C
:1004D0000121054801F048FC0121034801F024FCFA
:1004E00000BF1037BD4680BD0014004080B582B00B
:1004F00000AF37233B7100237B710023BB710123C5
:10050000FB713B1D184601F005F800BF0837BD46DA
:1005100080BD00BF80B500AF054B1B680133044AA6
:1005200013600121034801F043FC00BF80BD00BF00
:10053000480000200014004080B582B000AF0121C7
:10054000012000F05BF80121022000F057F80121A2
:10055000042000F053F84FF440433B6001233B710B
:1005600000237B710023BB710123FB713B461946BD
:100570001F4800F097FA04233B6001233B710023DE
:100580007B710023BB710223FB713B46194618485F
:1005900000F088FA4FF4F0533B6000233B710023D6
:1005A0007B710123FB713B461946124800F07AFA31
:1005B0004FF488533B6000233B7100237B71012380
:1005C000FB713B4619460A4800F06CFA4FF40043B1
:1005D0003B6000233B7100237B710123FB713B4691
:1005E0001946054800F05EFA00BF0837BD4680BDD9
:1005F00000040240000802400000024080B483B0C2
:1006000000AF78600B46FB70FB78002B06D00949E1
:10061000084B1A6B7B6813430B6306E00549054BD7
:100620001A6B7B68DB4313400B6300BF0C37BD467E
:1006300080BC70470038024080B483B000AF78605F
:100640000B46FB70FB78002B06D00949084B1A6C4F
:100650007B6813430B6406E00549054B1A6C7B6805
:10066000DB4313400B6400BF0C37BD4680BC7047B2
:100670000038024080B483B000AF78600B46FB7056
:10068000FB78002B06D00949084B5A6C7B68134352
:100690004B6406E00549054B5A6C7B68DB4313400D
:1006A0004B6400BF0C37BD4680BC70470038024029
:1006B00080B586B000AF00F0A7F8474B1B78072B3A
:1006C00006D9454B1B78FF2B02D0434B07221A70EB
:1006D000414B1B78002B03D03F4B1B78FF2B02D1E3
:1006E0003D4B00221A70002001F022F800211E204C
:1006F00001F0A6F9394A012306CA394801F07AF90E
:1007000008211E2001F09CF9344A012306CA35480D
:1007100001F070F910211E2001F092F92F4A0123F7
:1007200006CA314801F066F918211E2001F088F947
:100730002A4A012306CA2D4801F05CF920211E2017
:1007400001F07EF9254A012306CA294801F052F931
:1007500028211E2001F074F9204A012306CA2548E9
:1007600001F048F930211E2001F06AF91B4A0123EB
:1007700006CA214801F03EF938211E2001F060F937
:10078000164A012306CA1D4801F034F9124B1B78A2
:10079000DB00DBB219460A2001F052F9184A0123A6
:1007A00006CA184801F026F90B4B1B7818463B1D6A
:1007B0000A22194601F024FB04216E2001F040F9C1
:1007C0000F4A381D012306CA01F014F900F0D2FFC8
:1007D00000BF1837BD4680BD5F000020000000202C
:1007E000841E00088C1E0008941E00089C1E000831
:1007F000A41E0008AC1E0008B41E0008BC1E0008A1
:1008000008000020C41E000880B500AF00F014F9F5
:100810001F4B1B78022B1BD0042B30D0012B00D098
:1008200033E01C4B1B78013BDAB21A4B1A70184BA1
:1008300000221A704FF40041174800F0E9F96420D3
:10084000FFF716FD4FF40041134800F0D3F91CE008
:10085000104B1B780133DAB20E4B1A700C4B00228E
:100860001A704FF400410C4800F0D2F96420FFF7F1
:10087000FFFC4FF40041084800F0BCF905E000F02F
:100880000DF8034B00221A7000BF00BF80BD00BFEF
:100890005E0000205F0000200004024080B500AF31
:1008A000002000F045FF3A4B1B78082B6BD801A2C3
:1008B00052F823F0D9080008E5080008ED08000800
:1008C00003090008190900082F0900084509000854
:1008D0005B0900087109000800F002FD2D4B0122A0
:1008E0001A7050E02B4B02221A704CE000211E209F
:1008F00001F0A6F8284A012306CA284801F07AF830
:1009000041E000211E2001F09BF8234A012306CA82
:10091000234801F06FF836E000211E2001F090F826
:100920001D4A012306CA1F4801F064F82BE000218C
:100930001E2001F085F8184A012306CA1A4801F062
:1009400059F820E000211E2001F07AF8124A012314
:1009500006CA164801F04EF815E000211E2001F0ED
:100960006FF80D4A012306CA114801F043F80AE066
:1009700000211E2001F064F8074A012306CA0D4831
:1009800001F038F800BF00F0F5FE00BF80BD00BFE9
:100990005F0000204400002000000020C81E000866
:1009A000D01E0008D81E0008E01E0008E81E00083F
:1009B000F01E0008F81E000880B500AF002000F00F
:1009C000B7FE00211E2001F03BF8104A012306CAA1
:1009D0000F4801F00FF832210F2001F031F80B4AD7
:1009E000012306CA0B4801F005F800F0C3FEFFF72B
:1009F0000BFF094B1B78032B05D1074B00221A7004
:100A0000064B00221A7000BF80BD00BF000000200E
:100A1000001F0008081F00085E000020440000209E
:100A200080B400AF00BFBD4680BC704780B400AF4B
:100A300000BFBD4680BC704780B500AF4FF4006179
:100A4000154800F0BDF80346002B02D1134B0122DC
:100A50001A704FF40041124800F0B2F80346002B20
:100A600002D10E4B02221A704FF480510A4800F056
:100A7000A7F80346002B02D1084B04221A704FF44A
:100A80008061054800F09CF80346002B02D1034B1F
:100A900003221A7000BF80BD000802405E000020E3
:100AA0000000024080B487B000AF78603960002356
:100AB0007B6100233B610023FB6000237B6176E0C8
:100AC00001227B6902FA03F33B613B681A683B69C8
:100AD0001340FB60FA683B699A4265D17B681A68EB
:100AE0007B695B00032101FA03F3DB431A407B6857
:100AF0001A607B681A683B681B7919467B695B0042
:100B000001FA03F31A437B681A603B681B79012BD7
:100B100003D03B681B79022B2ED17B689A687B69D6
:100B20005B00032101FA03F3DB431A407B689A6000
:100B30007B689A683B685B7919467B695B0001FAC0
:100B400003F31A437B689A607B685A687B699BB29F
:100B5000012101FA03F3DB431A407B685A607B688A
:100B60005A683B689B7919467B699BB201FA03F38B
:100B70009BB21A437B685A607B68DA687B699BB2D8
:100B80005B00032101FA03F3DB431A407B68DA6060
:100B90007B68DA683B68DB7919467B695B0001FAA0
:100BA00003F31A437B68DA607B6901337B617B69FD
:100BB0000F2B85D900BF1C37BD4680BC704700BFD6
:100BC00080B485B000AF78600B467B800023FB7358
:100BD0007B681A697B881340002B02D00123FB73CA
:100BE00001E00023FB73FB7B18461437BD4680BC35
:100BF000704700BF80B483B000AF78600B467B8045
:100C00007B687A881A8300BF0C37BD4680BC70476A
:100C100080B483B000AF78600B467B807B687A88B5
:100C20005A8300BF0C37BD4680BC704780B485B086
:100C300000AF78600B467B8013467B700023FB601F
:100C40000023BB607A787B8803F007039B0002FADD
:100C500003F3FB607B88DB089BB218467B88DB08CC
:100C60009BB21A467B68083253F822207B8803F037
:100C700007039B000F2101FA03F3DB4302EA0301A0
:100C80007B6800F1080243F822107B88DB089BB2E6
:100C90001A467B68083253F82220FB681343BB6076
:100CA0007B88DB089BB21A467B680832B96843F838
:100CB000221000BF1437BD4680BC704780B500AF1E
:100CC0004FF400410A48FFF77BFF0346002B02D197
:100CD000084B02221A704FF400610748FFF770FFBB
:100CE0000346002B02D1034B01221A7000BF80BDC6
:100CF00000000240600000200008024080B500AF04
:100D0000FFF7DCFF2120FFF7B3FA154B1B78302BE0
:100D100002D9134B30221A70114B1B78042B02D8C6
:100D20000F4B05221A700F4B1B78012B02D0022BA0
:100D30000AD013E00A4B1B78053BDAB2084B1A7055
:100D4000084B00221A7009E0054B1B780533DAB214
:100D5000034B1A70034B00221A7000BF00BF80BD06
:100D6000670000206000002080B500AF00F002FDA9
:100D7000002000F0DDFC00BF80BD00BF80B586B064
:100D800000AFFFF7BBFF00F071F8274B1B781A4646
:100D9000264B1B781946104600F014FFFFF77AFB2C
:100DA0000246234B1B88D31A40F6B832934203D92C
:100DB00000F02EF900F09EF91E4B1B780133DAB2D9
:100DC0001C4B1A701B4B1B78052B07D1194B0022AB
:100DD0001A70194B1B680133174A1360174B1B68B5
:100DE0005A1D154B1B689A4205D1134B1B68134AB9
:100DF000136000F027F8104B1B6818463B1D0A22B1
:100E0000194600F0FDFF0521642000F019FE0C4A90
:100E1000381D012306CA00F0EDFDFFF7A5FF00BF56
:100E20001837BD4680BD00BF650000206700002068
:100E30005A000020740000206C0000207000002088
:100E40000800002080B400AF074B1B78092B07D89F
:100E5000054B1B785A1CD1B2034A1170024A137019
:100E600000BFBD4680BC70472900002080B584B01B
:100E700000AF0023FB7317E00023BB730EE05E4B53
:100E80001A78FB7B1344D8B2BB7B2033DBB2012240
:100E9000194600F0BFFCBB7B0133BB73BB7B012B4E
:100EA000EDD9FB7B0133FB73FB7B0E2BE4D90023D5
:100EB0007B7317E000233B730EE0504B1A787B7B6B
:100EC0001344D8B23B7B2033DBB20122194600F039
:100ED000A1FC3B7B01333B733B7B012BEDD97B7B3F
:100EE00001337B737B7B0E2BE4D90023FB7217E06D
:100EF0000023BB720EE0424B1A78FB7A1344D8B23F
:100F0000BB7A2033DBB20122194600F083FCBB7AA6
:100F10000133BB72BB7A012BEDD9FB7A0133FB7233
:100F2000FB7A0E2BE4D900237B7217E000233B727F
:100F30000EE0344B1A787B7A1344D8B23B7A2033D4
:100F4000DBB20122194600F065FC3B7A01333B72AB
:100F50003B7A012BEDD97B7A01337B727B7A0E2BA6
:100F6000E4D90023FB7117E00023BB710EE0264B90
:100F70001A78FB791344D8B2BB792033DBB2012253
:100F8000194600F047FCBB790133BB71BB79012BDB
:100F9000EDD9FB790133FB71FB790E2BE4D9164BAC
:100FA0001A781A4B1B78D31ADAB2134B1A70134BF8
:100FB0001A78164B1B78D31ADAB2104B1A70104BF2
:100FC0001A78124B1B78D31ADAB20D4B1A700D4BEC
:100FD0001A780E4B1B78D31ADAB20A4B1A700A4BE6
:100FE0001A780A4B1B78D31ADAB2074B1A7000BF73
:100FF0001037BD4680BD00BF240000202500002022
:1010000026000020270000202800002029000020C2
:1010100080B500AF304B1B78DC2B08D92E4B1B78EA
:10102000E52B04D82D4B1B88DAB22D4B1A702D4BB3
:101030001B78DC2B08D92B4B1B78E52B04D8274BCE
:101040001B88DAB2264B5A70274B1B78DC2B08D949
:10105000254B1B78E52B04D8204B1B88DAB2204B9C
:101060009A701D4B1B7818461D4B1B781A461F4B58
:101070009B5C194600F0A6FD1A4B1B781846184BCE
:101080005B781A46194B9B5C194600F09BFD164B8A
:101090001B781846124B9B781A46144B9B5C1946DA
:1010A00000F090FD0C4B1A78114B1B78D31ADAB272
:1010B000094B1A700B4B1A780D4B1B78D31ADAB206
:1010C000084B1A70084B1A78094B1B78D31ADAB2FE
:1010D000054B1A7000BF80BD2A0000205800002078
:1010E000780000202B0000202C000020340000207D
:1010F0002900002080B500AF2F4B1B781A462F4BDC
:101100001B7814339A4216DC2D4B1B781A462D4B54
:101110009B5CDA1D2C4B1B780F339A420BDC284B5F
:101120001B781A46274B9B5C0733274A1278934259
:1011300001DB00F04FF8254B1B781A461F4B1B783C
:1011400014339A4216DC1E4B5B781A461D4B9B5C8F
:10115000DA1D1D4B1B780F339A420BDC184B5B7862
:101160001A46184B9B5C0733174A1278934201DBEF
:1011700000F030F8164B1B781A46104B1B781433CE
:101180009A4216DC0E4B9B781A460E4B9B5CDA1D7E
:101190000D4B1B780F339A420BDC094B9B781A4698
:1011A000084B9B5C0733084A1278934201DB00F03E
:1011B00011F800BF80BD00BF2A000020650000209C
:1011C0007800002034000020670000202B00002061
:1011D0002C00002080B500AF4FF400411948FFF704
:1011E00017FD04211748FFF705FD002000F0A0FAC5
:1011F0000F21282000F024FC134A012306CA1348BB
:1012000000F0F8FB1E21282000F01AFC0E4A0123F2
:1012100006CA0F4800F0EEFB00F0ACFA4FF47A700B
:10122000FFF726F84FF400410648FFF7E3FC0421DE
:101230000448FFF7EDFC00F069F800F00BF800BF80
:1012400080BD00BF0004024010000020204D0008B7
:10125000284D000880B500AF164B1A68164B1B6866
:101260009A4203D3134B1B68134A1360114B00229D
:101270001A60124B04221A70114B00221A70114B83
:1012800084221A70104B00221A70104BC8221A7058
:101290000F4B00221A700F4BFA221A700E4B0022CD
:1012A0001A70FFF7F7F803469AB20C4B1A8000BF8A
:1012B00080BD00BF6C00002030000020290000200D
:1012C000740000202A000020690000202B0000206C
:1012D0006A0000202C0000206B0000205A00002033
:1012E00080B500AF002000F023FA0021002000F0BC
:1012F00081FC0021332000F095FC00F03BFA4FF414
:101300007A70FEF7B5FF00BF80BD00BF80B586B024
:1013100000AF0023FB7500F02DFA51E02C4B1B6849
:1013200018463B460A22194600F06AFD002000F0EC
:10133000FFF905210F2000F083FB264A012306CA8E
:10134000254800F057FB0521642000F079FB214A75
:101350003846012306CA00F04DFB23210F2000F080
:101360006FFB1E4A012306CA1D4800F043FB3221D1
:101370000F2000F065FB194A012306CA194800F046
:1013800039FB00F0F7F94FF400711748FFF718FC2C
:101390000346002B0CBF01230023DBB2FB75134B6C
:1013A00000221A70FFF730FA114B1B78032B07D17C
:1013B0000F4B00221A700F4B00221A700123FB758D
:1013C000FB7D002BAAD000BF1837BD4680BD00BFF3
:1013D0003000002008000020304D000800000020F0
:1013E0003C4D00084C4D0008000802406000002001
:1013F0005E0000204400002080B485B000AF78601B
:1014000039600023FB817B681B88FB81FB8903F427
:101410004153FB813B681A883B685B8813439AB24F
:101420003B689B8813439AB23B68DB8813439AB2AC
:101430003B681B8913439AB23B685B8913439AB29A
:101440003B689B8913439AB23B68DB8913439AB28A
:10145000FB891343FB817B68FA891A807B689B8B2D
:101460009BB223F400639AB27B689A833B681A8A22
:101470007B681A8200BF1437BD4680BC704700BF2E
:1014800080B483B000AF78600B46FB70FB78002B14
:1014900008D07B681B889BB243F040039AB27B68FC
:1014A0001A8007E07B681B889BB223F040039AB246
:1014B0007B681A8000BF0C37BD4680BC704700BFF8
:1014C00080B483B000AF78600B467B807B687A88FD
:1014D0009A8100BF0C37BD4680BC704780B485B090
:1014E00000AF78600B467B800023FB737B681B8911
:1014F0009AB27B8813409BB2002B02D00123FB736E
:1015000001E00023FB73FB7B18461437BD4680BC0B
:10151000704700BF80B485B000AF78600023FB73D4
:101520000023BB730F237B737B68DB78002B38D0E1
:10153000264BDB68DB4303F4E0631B0AFB73FB7B96
:10154000C3F10403BB737A7BFB7B42FA03F37B7327
:101550007B685B781A46BB7B02FA03F3FB737B68FC
:101560009A787B7B1340DAB2FB7B1343FB73FB7BE4
:101570001B01FB73164A7B681B781344FA7B83F8C4
:101580000023134A7B681B785B09DBB218467B6833
:101590001B7803F01F03012101FA03F342F8203006
:1015A0000FE00B497B681B785B09DBB218467B6850
:1015B0001B7803F01F0301229A4000F1200341F839
:1015C000232000BF1437BD4680BC704700ED00E00B
:1015D00000E100E080B500AF10210948FFF70AFBE9
:1015E00010210848FFF714FB0A20FEF741FE1021E6
:1015F0000448FFF7FFFA0A20FEF73AFE00BF80BD5D
:10160000000802400000024080B582B000AF0346EF
:10161000FB7110210E48FFF7FBFA40210D48FFF740
:10162000F7FA00BF02210C48FFF758FF0346002BD2
:10163000F8D0FB799BB219460748FFF741FF10210C
:101640000348FFF7D7FA00BF0837BD4680BD00BF8B
:1016500000080240000002400030014080B500AFA9
:10166000FFF7B8FF6420FEF703FE002000F014FA35
:101670002020FFF7C9FF1020FFF7C6FFB020FFF7BB
:10168000C3FFC820FFF7C0FF0020FFF7BDFF1020F9
:10169000FFF7BAFF4020FFF7B7FFFF2000F0E8F99F
:1016A000A120FFF7B1FFA620FFF7AEFFA820FFF7AC
:1016B000ABFF3F20FFF7A8FFA420FFF7A5FFD32033
:1016C000FFF7A2FF0020FFF79FFFD520FFF79CFF49
:1016D000F020FFF799FFD920FFF796FF2220FFF7B0
:1016E00093FFDA20FFF790FF1220FFF78DFFDB203A
:1016F000FFF78AFF2020FFF787FF8D20FFF784FF89
:101700001420FFF781FF012000F0C6F9002000F04F
:101710000FF800F02FF8054B00221A80034B00222F
:101720005A80024B01225A7100BF80BD9C040020E8
:1017300080B485B000AF0346FB710023FB600DE071
:10174000FB79002B01D1002100E0FF21084AFB6852
:1017500013440A461A70FB680133FB60FB68B3F55B
:10176000846FEDD300BF1437BD4680BC704700BF07
:101770007C00002080B582B000AF0023FB713AE00E
:10178000FB79503BDBB21846FFF73EFF0020FFF726
:101790003BFF1020FFF738FF10211A48FFF738FAF7
:1017A00040211948FFF726FA00233B6019E000BFEB
:1017B00002211648FFF792FE0346002BF8D0FA7973
:1017C00013465B0113449B001A463B681344104ABE
:1017D000D35C9BB219460D48FFF772FE3B6801339C
:1017E0003B603B68832BE2DD10210648FFF702FADD
:1017F000FB790133FB71FB79072BC1D900BF083797
:10180000BD4680BD0008024000000240003001409B
:101810007C00002080B483B000AF0346FB710B4610
:10182000BB7113467B71FB79832B52D8BB793F2B5D
:101830004FD82A4B1B79002B06D07B79002B0CBF8D
:1018400001230023DBB27B717B79012B1FD1FA7955
:10185000BB79DB08D8B201460B465B010B449B0009
:101860001A44F97903465B0103449B000B441C496D
:10187000CB5C59B2BB7903F00703012000FA03F3F4
:101880005BB20B435BB2D9B2154B995422E0FA79A3
:10189000BB79DB08D8B201460B465B010B449B00C9
:1018A0001A44F97903465B0103449B000B440C493D
:1018B000CB5C59B2BB7903F00703012000FA03F3B4
:1018C0005BB2DB435BB20B405BB2D9B2044B9954C1
:1018D00000E000BF0C37BD4680BC70479C04002070
:1018E0007C00002090B589B000AF0446381D80E828
:1018F00006001A462346FB731346BB73FB7B1F2B64
:1019000002D9FB7B7E2B01D900236DE0384B1B886D
:101910001A463B791344842B06DC354B5B881A4608
:101920007B791344402B01DD00235DE00023FB6144
:101930004CE0BA68FB7B203B797901FB03F3194645
:10194000FB690B445B0013441B887B610023BB6174
:1019500034E07A69BB6902FA03F303F40043002B15
:1019600012D0234B1B88DAB2BB69DBB21344D8B266
:101970001F4B5B88DAB2FB69DBB21344DBB2BA7B84
:101980001946FFF747FF16E0194B1B88DAB2BB690F
:10199000DBB21344D8B2164B5B88DAB2FB69DBB218
:1019A0001344D9B2BB7B002B0CBF01230023DBB255
:1019B0001A46FFF72FFFBB690133BB613B791A461B
:1019C000BB699A42C5D8FB690133FB617B791A4632
:1019D000FB699A42ADD8064B1A883B799BB21344F7
:1019E0009AB2034B1A80FB7B18462437BD4690BD44
:1019F0009C04002080B584B000AFF860381D80E8FA
:101A00000600FB7012E0FB681878FB783A1D06CAE6
:101A1000FFF768FF03461A46FB681B789A4202D01C
:101A2000FB681B7808E0FB680133FB60FB681B78F0
:101A3000002BE8D1FB681B7818461037BD4680BDE7
:101A400080B483B000AF03460A46FB711346BB71F6
:101A5000FB799AB2054B1A80BB799AB2034B5A8034
:101A600000BF0C37BD4680BC704700BF9C040020FF
:101A700080B584B000AF0346FB718123FB73FB7B11
:101A80001846FFF7C1FDFB791846FFF7BDFD00BF03
:101A90001037BD4680BD00BF80B584B000AF03469F
:101AA000FB71FB79002B05D0AF23FB73084B0122A0
:101AB0009A7104E0AE23FB73054B00229A71FB7B05
:101AC0001846FFF7A1FD00BF1037BD4680BD00BF1F
:101AD0009C04002080B586B000AFBA601A46034669
:101AE000FB810B46BB811346FB80B7F906300733F9
:101AF000002B00DA0733DB103B820023FB75002349
:101B0000BB8254E000237B823FE07B8A03F0070323
:101B1000002B03D0FB7D5B00FB7512E0B7F914309E
:101B2000B7F9102002FB03F2B7F91230002B00DAEC
:101B30000733DB101BB213441A46BB6813441B78EF
:101B4000FB7597F91730002B0DDAFB89DAB27B8A27
:101B5000DBB21344DBB2BA89D1B2BA8CD2B2184626
:101B6000FFF758FE0BE0FB89DAB27B8ADBB2134445
:101B7000DBB2BA89D1B200221846FFF74BFEB7F9A3
:101B800012309BB201339BB27B82B7F91220B7F9B6
:101B900006309A42B9DBB7F914309BB201339BB2DD
:101BA000BB82B7F90C309BB201339BB2BB81B7F952
:101BB0001420B7F920309A42A4DB00BF1837BD4685
:101BC00080BD00BF80B584B002AF786039607B68AB
:101BD00018B23B6819B2012301930F2300931E230F
:101BE000034AFFF777FF00BF0837BD4680BD00BF3F
:101BF0004055000880B584B002AF786039607B68DA
:101C000018B23B6819B20123019340230093322399
:101C1000034AFFF75FFF00BF0837BD4680BD00BF26
:101C20008053000880B584B002AF786039607B686B
:101C300018B23B6819B20123019340230093462355
:101C4000034AFFF747FF00BF0837BD4680BD00BF0E
:101C50004051000880B485B000AF7860396000233F
:101C6000FB817B681B88FB817B68284A934213D0E9
:101C70007B68274A93420FD07B68B3F1804F0BD02B
:101C80007B68244A934207D07B68234A934203D05F
:101C90007B68224A934208D1FB8923F07003FB81C1
:101CA0003B685A88FB891343FB817B681C4A93423B
:101CB0000CD07B681B4A934208D0FB8923F4407305
:101CC000FB813B681A89FB891343FB817B68FA8996
:101CD0001A803B685A687B68DA623B681A887B68BE
:101CE0001A857B68094A934203D07B68084A93426D
:101CF00004D13B689B7A9AB27B681A867B68012282
:101D00009A8200BF1437BD4680BC70470000014076
:101D1000000401400004004000080040000C0040A6
:101D2000001000400014004080B483B000AF786021
:101D30000B46FB70FB78002B08D07B681B889BB29E
:101D400043F001039AB27B681A8007E07B681B8826
:101D50009BB223F001039AB27B681A8000BF0C3754
:101D6000BD4680BC704700BF80B483B000AF7860D0
:101D70000B467B8013467B707B78002B08D07B68FA
:101D80009B899AB27B8813439AB27B689A8109E057
:101D90007B689B899AB27B88DB439BB213409AB2E3
:101DA0007B689A8100BF0C37BD4680BC704700BF7E
:101DB00080B483B000AF78600B467B807B88DB43C8
:101DC0009AB27B681A8200BF0C37BD4680BC704750
:101DD000931E222B10D80A2A10B506D000230C46D9
:101DE000194400F00FF8204610BD0028F6DA2D2324
:101DF0000B7040420123F2E700200870704700BFDB
:101E0000FFF7E6BFF0B5DFF878E0164604460F4668
:101E1000BEE80F008BB06D460FC5BEE80F000FC5C2
:101E20009EE80300B31E45F8040B222B297022D82C
:101E30007D1E2846002200E01A46B4FBF6F10AABEC
:101E400006FB114423440C4613F8283C00F8013FDC
:101E5000531C0029F0D1F954BB184AB1197815F870
:101E6000010F29700134111B8C4203F80109F5DBC5
:101E700038460BB0F0BD002038700BB0F0BD00BF8D
:101E80007C55000847616D65000000004D656E756A
:101E90005F3200004D656E755F3300004D656E75F5
:101EA0005F3400004D656E755F3500004D656E75E1
:101EB0005F3600004D656E755F3700004D656E75CD
:101EC0005F3800002D3E000050726F675F330000E6
:101ED00050726F675F34000050726F675F350000AB
:101EE00050726F675F36000050726F675F37000097
:101EF00050726F675F38000050726F675F39000083
:101F000050726F675F3200005072657373206B65AB
:101F100079204C656674204F555400000000000085
:101F200000000000000000000000000000000000B1
:101F30000010001000100010001000100000001031
:101F40000000000000280028002800000000000019
:101F5000000000000000000000240024007C002499
:101F60000048007C00480048000000000038005491
:101F700000500038001400540054003800100000D5
:101F800000200054005800300028005400140008BD
:101F90000000000000100028002800100034004855
:101FA0000048003400000000001000100010000085
:101FB0000000000000000000000000000008001009
:101FC0000020002000200020002000200010000839
:101FD00000200010000800080008000800080008A1
:101FE0000010002000100038001000280000000041
:101FF00000000000000000000000000000100010C1
:10200000007C001000100000000000000000000034
:102010000000000000000000000000100010001090
:102020000000000000000000000000380000000078
:1020300000000000000000000000000000000000A0
:102040000000001000000000000800080010001050
:1020500000100010002000200000000000380044A4
:1020600000440054004400440044003800000000D4
:102070000010003000500010001000100010001080
:102080000000000000380044004400040008001074
:102090000020007C0000000000380044000400180C
:1020A000000400040044003800000000000800188C
:1020B000002800280048007C0008000800000000FC
:1020C000007C004000400078000400040044003818
:1020D0000000000000380044004000780044004444
:1020E0000044003800000000007C000400080010DC
:1020F00000100020002000200000000000380044F4
:10210000004400380044004400440038000000004F
:102110000038004400440044003C000400440038FF
:10212000000000000000000000100000000000009F
:10213000000000100000000000000000000000107F
:10214000000000000000001000100010000000005F
:10215000000C003000400030000C000000000000C7
:10216000000000000000007C0000007C0000000077
:1021700000000000000000000060001800040018CB
:102180000060000000000000003800440004000867
:102190000010001000000010000000000038004493
:1021A000004C0054005C004000400038000000007B
:1021B00000100028002800280028007C004400446B
:1021C000000000000078004400440078004400440F
:1021D0000044007800000000003800440040004047
:1021E000004000400044003800000000007000483B
:1021F0000044004400440044004800700000000017
:10220000007C00400040007C004000400040007C1A
:1022100000000000007C00400040007800400040CA
:102220000040004000000000003800440040004032
:10223000005C0044004400380000000000440044FA
:102240000044007C004400440044004400000000BE
:1022500000380010001000100010001000100038AE
:102260000000000000040004000400040004000456
:1022700000440038000000000044004800500060A6
:1022800000500048004800440000000000400040AA
:1022900000400040004000400040007C0000000082
:1022A0000044006C006C00540044004400440044AE
:1022B0000000000000440064006400540054004C1E
:1022C000004C00440000000000380044004400447A
:1022D000004400440044003800000000007800443E
:1022E000004400440078004000400040000000002E
:1022F00000380044004400440044004400540038C6
:1023000000040000007800440044004400780048C5
:102310000048004400000000003800440040003045
:10232000000800040044003800000000007C001099
:10233000001000100010001000100010000000003D
:102340000044004400440044004400440044003879
:102350000000000000440044004400280028002839
:10236000001000100000000000440044005400541D
:102370000054006C002800280000000000440028E1
:102380000028001000100028002800440000000071
:102390000044004400280028001000100010001025
:1023A00000000000007C0004000800100010002065
:1023B0000040007C00000000001800100010001019
:1023C0000010001000100010001000180020002065
:1023D00000100010001000100008000800000000AD
:1023E000003000100010001000100010001000104D
:1023F00000100030001000280028004400000000F9
:1024000000000000000000000000000000000000CC
:102410000000000000000000000000FE002000108E
:1024200000000000000000000000000000000000AC
:102430000000000000380044003C0044004C003420
:1024400000000000004000400058006400440044C8
:102450000064005800000000000000000038004444
:102460000040004000440038000000000004000468
:102470000034004C00440044004C003400000000D4
:102480000000000000380044007C00400044003898
:1024900000000000000C0010007C00100010001074
:1024A0000010001000000000000000000034004C8C
:1024B00000440044004C0034000400780040004018
:1024C0000058006400440044004400440000000040
:1024D000001000000070001000100010001000102C
:1024E000000000000010000000700010001000103C
:1024F00000100010001000E00040004000480050B4
:10250000006000500048004400000000007000100F
:10251000001000100010001000100010000000005B
:10252000000000000078005400540054005400548F
:102530000000000000000000005800640044004457
:102540000044004400000000000000000038004487
:102550000044004400440038000000000000000077
:1025600000580064004400440064005800400040EB
:10257000000000000034004C00440044004C0034D3
:102580000004000400000000005800640040004007
:10259000004000400000000000000000003800443F
:1025A0000030000800440038000000000020002037
:1025B000007800200020002000200018000000000B
:1025C000000000000044004400440044004C00347B
:1025D0000000000000000000004400440028002823
:1025E000002800100000000000000000005400540B
:1025F0000054006C002800280000000000000000CB
:1026000000440028001000100028004400000000D2
:1026100000000000004400440028002800100010C2
:102620000010006000000000007C00080010002086
:102630000040007C00000000001800100010001096
:1026400000200020001000100010001800100010E2
:1026500000100010001000100010001000100010FA
:1026600000300010001000100008000800100010DA
:10267000001000300000000000000074004C00005A
:10268000000000000000000000000000000000004A
:10269000000000000000000000000000000000003A
:1026A0000000000000000000000000000000000C1E
:1026B000000C000C000C000C000C000C000C000CBA
:1026C000000C000C0000000C000C000000000000DA
:1026D0000000001B001B001B001B001B0000000073
:1026E00000000000000000000000000000000000EA
:1026F0000000000000008019801980198019C07F37
:10270000C07F80190033C07FC07F003300330033A7
:1027100000330000000000000000001E003F807534
:1027200080650074003C001E0007800580658065A0
:102730008075003F001E00040004000000000070CF
:1027400000D840D8C0D880D900730006000C801B88
:10275000C036C066C046C00680030000000000000E
:102760000000001E003F003300330033001E000C49
:10277000C03CC066806380618063C03E801C0000F6
:10278000000000000000000C000C000C000C000C0D
:102790000000000000000000000000000000000039
:1027A000000000000000000080000001000300069F
:1027B00000060004000C000C000C000C000C000CC7
:1027C0000004000600060003000180000020001045
:1027D0000018000C000C00040006000600060006AD
:1027E000000600060004000C000C00180010002079
:1027F0000000000C002D003F001E00330000000010
:1028000000000000000000000000000000000000C8
:1028100000000000000000000000000C000C000C94
:10282000000CC0FFC0FF000C000C000C000C0000EE
:102830000000000000000000000000000000000098
:102840000000000000000000000000000000000088
:102850000000000C000C0004000400080000000050
:102860000000000000000000000000000000001E4A
:10287000001E00000000000000000000000000003A
:102880000000000000000000000000000000000048
:1028900000000000000000000000000C000C000020
:1028A0000000000000000003000300030006000613
:1028B00000060006000C000C000C000C00180018AC
:1028C00000180000000000000000001E003F003360
:1028D000806180618061806D806D806180618061D8
:1028E0000033003F001E0000000000000000000652
:1028F000000E001E00360026000600060006000638
:1029000000060006000600060006000000000000A9
:102910000000001E003F8073806180618001000321
:102920000006000C001800300060807F807F0000EF
:10293000000000000000001C003E00630063000374
:10294000000E000E00038001800180618073003F53
:10295000001E00000000000000000006000E000E37
:10296000001E001E0016003600360066807F807F45
:102970000006000600060000000000000000007FC6
:10298000007F006000600060006E007F8063800157
:10299000800180618073003F001E00000000000085
:1029A0000000001E003F803380610060006E007FE9
:1029B00080738061806180618033003F001E000071
:1029C000000000000000807F807F80010003000382
:1029D00000060006000C000C000C0008001800188F
:1029E00000180000000000000000001E003F80638F
:1029F000806180610021001E003F806180618061F4
:102A00008061003F001E0000000000000000001E6A
:102A1000003F00738061806180618073803F801D12
:102A2000800180610073003F001E00000000000074
:102A300000000000000000000000000C000C00007E
:102A400000000000000000000000000C000C00006E
:102A50000000000000000000000000000000000076
:102A6000000C000C00000000000000000000000C42
:102A7000000C00040004000800000000000000003A
:102A800080008003000E003800600038000E8003D4
:102A900080000000000000000000000000000000B6
:102AA000000000000000807F807F00000000807F29
:102AB000807F000000000000000000000000000017
:102AC000000000000000000000400070001C000733
:102AD00080010007001C00700040000000000000A2
:102AE000000000000000001F803FC071C060C000F7
:102AF000C00180030007000E000C000C0000000C59
:102B0000000C0000000000000000001E003F8031AB
:102B100080718063806F806D806D806F80670060E2
:102B20000032003E001C0000000000000000000E0B
:102B3000000E001B001B001B001B80318031803FFA
:102B4000803F8031C060C060C060000000000000B5
:102B50000000007C007E0063006300630063007E71
:102B6000007E0063806180618063007F007E0000E2
:102B7000000000000000001E003F80318061006006
:102B80000060006000600060006080618031003F94
:102B9000001E0000000000000000007C007F0063B9
:102BA0008063806180618061806180618061006399
:102BB0000063007E007C0000000000000000807FB9
:102BC000807F0060006000600060007F007F006028
:102BD000006000600060807F807F000000000000D7
:102BE0000000807F807F0060006000600060007FE8
:102BF000007F006000600060006000600060000016
:102C0000000000000000001E003F80318061006075
:102C10000060006080638063806180618031803FFC
:102C2000001E0000000000000000806180618061E3
:102C3000806180618061807F807F80618061806150
:102C40008061806180610000000000000000003FA2
:102C5000003F000C000C000C000C000C000C000CE1
:102C6000000C000C000C003F003F000000000000C2
:102C700000008001800180018001800180018001CD
:102C800080018001806180618073003F001E000030
:102C9000000000000000C060806100630066006604
:102CA000006C0078007C00660066006380618061D3
:102CB000C0600000000000000000006000600060D4
:102CC0000060006000600060006000600060006004
:102CD0000060807F807F0000000000000000C07165
:102CE000C071C07BC07AC06AC06AC06EC064C06078
:102CF000C060C060C060C060C06000000000000034
:102D0000000080718071807980798079806D806D1C
:102D1000806D806580678067806780638063000066
:102D2000000000000000001E003F00338061806151
:102D30008061806180618061806180610033003FDB
:102D4000001E0000000000000000007E007F806385
:102D50008061806180618063007F007E0060006030
:102D60000060006000600000000000000000001E25
:102D7000003F00338061806180618061806180619B
:102D8000806580670033803F401E00000000000027
:102D90000000007E007F8063806180618063007F2F
:102DA000007E00660063006380618061C060000097
:102DB000000000000000000E001F80318031003054
:102DC0000038001E00078003806180618031003F71
:102DD000001E0000000000000000C0FFC0FF000C4B
:102DE000000C000C000C000C000C000C000C000C83
:102DF000000C000C000C00000000000000008061CE
:102E000080618061806180618061806180618061BA
:102E1000806180618073003F001E000000000000A0
:102E20000000C060C060C060803180318031001B14
:102E3000001B001B001B000E000E000E0004000013
:102E4000000000000000C0C0C0C0C0C0C0C0C0C002
:102E5000C0CC804C804C805E8052805280738061F8
:102E600080610000000000000000C0C08060806140
:102E70000033003B001E000C000C001E001F003B36
:102E800080718061C0C00000000000000000C0C070
:102E90008061806100330033001E001E000C000CB6
:102EA000000C000C000C000C000C000000000000E6
:102EB0000000803F803F8001000300030006000CFB
:102EC000000C0018001800300060807F807F000038
:102ED00000000000000F000F000C000C000C000CA4
:102EE000000C000C000C000C000C000C000C000C82
:102EF000000C000C000F000F000000180018001854
:102F0000000C000C000C000C000600060006000679
:102F1000000300030003000000000000001E001E6C
:102F20000006000600060006000600060006000671
:102F3000000600060006000600060006001E001E31
:102F40000000000C000C001E0012003300338061F2
:102F50008061000000000000000000000000000090
:102F60000000000000000000000000000000000061
:102F70000000000000000000000000000000000051
:102F800000000000E0FF0000000000380018000C06
:102F90000000000000000000000000000000000031
:102FA0000000000000000000000000000000000021
:102FB000000000000000001F803F80618001801F32
:102FC000803F80618063807FC03800000000000087
:102FD00000000060006000600060006E007F807391
:102FE00080618061806180618073007F006E00007D
:102FF0000000000000000000000000000000001EB3
:10300000003F807380610060006080618073003FDA
:10301000001E00000000000000008001800180010F
:103020008001801D803F807380618061806180614C
:103030008073803F801D0000000000000000000041
:10304000000000000000001E003F00738061807FD0
:10305000807F00608071003F001E000000000000C3
:103060000000C007C00F000C000C807F807F000CA8
:10307000000C000C000C000C000C000C000C0000FC
:10308000000000000000000000000000801D803FE4
:10309000807380618061806180618073803F801D6A
:1030A00080018063007F003E0000006000600060DF
:1030B0000060006F807F80718061806180618061CD
:1030C0008061806180610000000000000000000657
:1030D000000600000000003E003E0006000600065C
:1030E00000060006000600060006000000000000C2
:1030F0000006000600000000003E003E000600063C
:10310000000600060006000600060006000600464F
:10311000007E003C00000060006000600060806194
:1031200000630066006C007C0076006300638061D1
:10313000C0600000000000000000003E003E0006ED
:10314000000600060006000600060006000600064F
:10315000000600060006000000000000000000005D
:1031600000000000000080DDC0FFC0CEC0CCC0CC9D
:10317000C0CCC0CCC0CCC0CCC0CC00000000000093
:1031800000000000000000000000006F807F8071E0
:103190008061806180618061806180618061000008
:1031A0000000000000000000000000000000001E01
:1031B000003F807380618061806180618073003F27
:1031C000001E0000000000000000000000000000E1
:1031D000006E007F80738061806180618061807398
:1031E000007F006E00600060006000600000000072
:1031F00000000000801D803F8073806180618061DD
:1032000080618073803F801D80018001800180018A
:10321000000000000000000000000067803F00394F
:10322000003000300030003000300030003000004E
:103230000000000000000000000000000000001E70
:10324000803F80610060007F803F80018061007F5F
:10325000001E000000000000000000000008001830
:103260000018007F007F00180018001800180018D0
:103270000018801F800F0000000000000000000008
:1032800000000000000080618061806180618061D9
:10329000806180618063807F803D000000000000CD
:1032A00000000000000000000000C060803180319C
:1032B0008031001B001B001B000E000E00060000EA
:1032C000000000000000000000000000000080DDA1
:1032D00080DD80DD00550055005500770077002225
:1032E00000220000000000000000000000000000BC
:1032F0000000806100330033001E000C000C001E33
:103300000033003380610000000000000000000076
:103310000000000080618061803100330033001BB9
:10332000001B001B000E000E000E001C007C007035
:1033300000000000000000000000C07FC07F80018E
:1033400000030006000C00180030C07FC07F0000A2
:10335000000000008003800700060006000600064B
:103360000006000E001C001C000E000600060006F1
:10337000000600068007800300060006000600061F
:10338000000600060006000600060006000600060D
:103390000006000600060006000600060038003C95
:1033A000000C000C000C000C000C000E00070007C5
:1033B000000E000C000C000C000C000C003C00384F
:1033C0000000000000000000000000000000803845
:1033D000807F0047000000000000000000000000A7
:1033E00000000000000000000000000000000000DD
:1033F00000000000000000000000000000000000CD
:1034000000000000000000000000000000000000BC
:103410000000000000000000E003E003E003E00320
:10342000E003E003E003E003C003C003C001C00108
:10343000C001C001C001000000000000E003E00383
:10344000E003000000000000000000003C1E3C1EE5
:103450003C1E3C1E3C1E3C1E3C1E000000000000AA
:10346000000000000000000000000000000000005C
:10347000000000000000000000000000000000004C
:10348000CE01CE03DE039E039C039C07FF3FFF7F1C
:103490003807380F780F780F780EFFFFFFFFF01E08
:1034A000F01CE01CE03CE03DE039000000000000C2
:1034B00000000000FC03FE0FEE1FE01EE01EE01EF9
:1034C000E01EE01FE00FE007F003FC01FE01FE013B
:1034D000FE01FE01FE01FE01FE3DFC3FF00FE0019A
:1034E000E001000000000000033E07F78FE78EE7D1
:1034F0009EE3BCE3B8E7F8E7F0F7E03FC001FF0365
:10350000FF07F307F30FF31EF33CF338F3787FF074
:103510003FE000000000000000000000E007F80F9E
:10352000780F781F781F781F780FF00FE00F801F3B
:10353000C37FC3FBE7F3F7F1F7F0FFF07FF03EF84E
:103540007F7CFF3FEF1F0000000000000000000034
:10355000E003E003E003E003E003C003C001000078
:10356000000000000000000000000000000000005B
:10357000000000000000000000000000000000004B
:10358000000000003F007C00F001E001C003C00724
:1035900080078007800F000F000F000F000F000F43
:1035A000000F800F80078007C007C003E001F00113
:1035B0007C003F000F000000007E001FC007C0031A
:1035C000E001F001F000F000F800780078007800E9
:1035D000780078007800F800F000F000F001E001D9
:1035E000C003C007001F007E00780000E003C00396
:1035F000C001CE39FF3F7F3F20037003F807780FEB
:103600003C1F380600000000000000000000000021
:1036100000000000000000000000000000000000AA
:10362000000000000000000000000000C001C00118
:10363000C001C001C001C001C001FFFFFFFFC00108
:10364000C001C001C001C001C001000000000000B5
:10365000000000000000000000000000000000006A
:10366000000000000000000000000000000000005A
:10367000000000000000E003E003E003E003E001DD
:10368000E001E001C0018003000000000000000034
:103690000000000000000000000000000000FE3FED
:1036A000FE3F0000000000000000000000000000DD
:1036B000000000000000000000000000000000000A
:1036C00000000000000000000000000000000000FA
:1036D0000000000000000000000000000000E00307
:1036E000E003E003E0030000000000000000000031
:1036F0000F000F001E001E003C003C007800780008
:10370000F000F000E001E001C003C0038007800783
:10371000000F000F001E001E003C003C00780078E7
:1037200000F00000F007F80F7C1F3E3E1E3C1F7C9F
:103730001F7C0F780F780F780F780F780F780F783D
:103740001F7C1F7C1E3C3E3E7C1FF80FF0070000D4
:103750000000000000000000F000F007F03FF03F24
:10376000F001F001F001F001F001F001F001F001D1
:10377000F001F001F001F001F001F001F001FF3F74
:10378000FF3F00000000000000000000E00FF83FD5
:103790007C3C3C003E003E003E003C003C007C0087
:1037A000F800F001E003C0078007000F001E003E94
:1037B000003CFE3FFE3F0000000000000000000053
:1037C000F00FF81F7C1C3E003E003E003C003C0019
:1037D000F800F00FF80F7C003E001E001E001E00D7
:1037E0001E003E007C1CF81FE01F000000000000CF
:1037F000000000007800F800F800F801F803F8076E
:10380000F807780F781E781E783C78787878FFFF74
:10381000FFFF7800780078007800780078000000DA
:103820000000000000000000FC1FFC1FFC1F001E29
:10383000001E001E001E001EE01FF81FFC007C0082
:103840003E003E001E003E003E003C007C1CF81F77
:10385000E01F00000000000000000000FC01FE0767
:103860008E0F001F001E003E003C003CF83DFC3F58
:103870003E7F1F7E0F3C0F3C0F3C0F3C0F3E1F1E38
:103880003E1FFC0FF00300000000000000000000DD
:10389000FF3FFF3FFF3F0F001E001E003C003800AF
:1038A0007800F000F000E001E001C003C0038007F1
:1038B000800F800F000F001F001F0000000000009D
:1038C00000000000F807FC0F3E1F1E1E1E3E1E3E9D
:1038D0001E1E3C1FF80FF007F80FFC1E3E3E1F3C5B
:1038E0001F7C0F7C0F7C1F3C3E3FFC1FF00700003D
:1038F0000000000000000000F007F80F7C1E3E3CB6
:103900001E3C1F7C1F7C1F7C1F7C1F3C3F3EFF1FFB
:10391000EF071F001E001E003E003C00F838F03F7D
:10392000E01F000000000000000000000000000098
:103930000000000000000000E003E003E003E003FB
:103940000000000000000000000000000000E00394
:10395000E003E003E00300000000000000000000BE
:10396000000000000000000000000000E003E00391
:10397000E003E00300000000000000000000000081
:103980000000E003E003E003E003E001E001E00108
:10399000C0038003000000000000000000000000E1
:1039A00003000F003F00FC00F003C00F003F00FECB
:1039B000003FC00FF003FC003F000F0003000000B9
:1039C00000000000000000000000000000000000F7
:1039D000000000000000000000000000FFFFFFFFEB
:1039E000000000000000FFFFFFFF000000000000DB
:1039F00000000000000000000000000000000000C7
:103A0000000000000000000000E000F8007E801FC1
:103A1000E007F8017E001F007E00F801E007801F2C
:103A2000007E00F800E00000000000000000000040
:103A3000F01FFC3F3E381F381F381E001E003C00A0
:103A40007800F000E001C003C003C007C007000019
:103A500000000000C007C007C00700000000000011
:103A600000000000F803FE0F1E1F0F3E7F3CFF7892
:103A7000EF79C773C7F38FF38FF38FF39FF39FF340
:103A8000FF73FF7BF779003C1C1FFC0FF80300005D
:103A90000000000000000000000000000000E00343
:103AA000E003F007F007F007780F780F7C0E3C1E5C
:103AB0003C1E3E3CFE3FFF3F1F780F780FF007F0A3
:103AC00007F00000000000000000000000000000FF
:103AD0000000F83FFC3F3E3C1E3C1E3C1E3C3E3C72
:103AE0007C3CF03FF83F7E3C1F3C1F3C0F3C0F3CB2
:103AF0001F3CFE3FF83F00000000000000000000F7
:103B0000000000000000FF01FF07871F003E003C8F
:103B1000007C00780078007800780078007C007CD9
:103B2000003E003F831FFF07FF0100000000000070
:103B300000000000000000000000F07FFC7F7E78A5
:103B40001F781F780F780F780F780F780F780F781D
:103B50000F780F781F781E787E78F87FE07F00005E
:103B60000000000000000000000000000000FF3F17
:103B7000FF3F003E003E003E003E003E003EFE3F56
:103B8000FE3F003E003E003E003E003E003EFF3F46
:103B9000FF3F0000000000000000000000000000E7
:103BA0000000FF1FFF1F001E001E001E001E001E43
:103BB000001EFF1FFF1F001E001E001E001E001E15
:103BC000001E001E001E000000000000000000009B
:103BD000000000000000FE03FF0F871F003E007C76
:103BE000007C007800F800F87FF87FF80F780F7CF1
:103BF0000F7C0F3E8F1FFF0FFE0300000000000030
:103C0000000000000000000000001F7C1F7C1F7CE3
:103C10001F7C1F7C1F7C1F7C1F7CFF7FFF7F1F7C06
:103C20001F7C1F7C1F7C1F7C1F7C1F7C1F7C000057
:103C30000000000000000000000000000000FF3F46
:103C4000FF3FE003E003E003E003E003E003E00301
:103C5000E003E003E003E003E003E003E003FF3FF1
:103C6000FF3F000000000000000000000000000016
:103C70000000FC1FFC1F7C007C007C007C007C00A2
:103C80007C007C007C007C007C007C00780078005C
:103C9000F838F03FC03F00000000000000000000C6
:103CA0000000000000001F3C1E3C3C3C783CF03C07
:103CB000E03DE03FC03F803FC03FE03FF03DF03C93
:103CC000783C7C3C3E3C1F3C0F3C00000000000068
:103CD00000000000000000000000003E003E003E2A
:103CE000003E003E003E003E003E003E003E003EE4
:103CF000003E003E003E003E003EFF3FFF3F000012
:103D000000000000000000000000000000001FF89C
:103D10001FFC1FFC3FFE3FFE3FFE7FFF77FF77FF4C
:103D2000F7F7E7F7E7F3E7F3C7F307F007F007F074
:103D300007F000000000000000000000000000008C
:103D400000000F7C0F7C0F7E0F7F0F7F8F7F8F7F98
:103D5000CF7FEF7BEF79FF79FF78FF787F783F782F
:103D60003F781F781F78000000000000000000006E
:103D7000000000000000F007FC1F3E3E1F7C0F7893
:103D80000F780FF80FF80FF80FF80FF80FF80F78FB
:103D90000F781F7C3E3EFC1FF00700000000000073
:103DA00000000000000000000000FC3FFF3F1F3E3D
:103DB0000F3E0F3E0F3E0F3E1F3E3F3EFC3FF03F8B
:103DC000003E003E003E003E003E003E003E000041
:103DD0000000000000000000000000000000F007EC
:103DE000FC1F3E3E1F7C0F780F780FF80FF80FF87E
:103DF0000FF80FF80FF80F780F781F7C3E3EFC1F6E
:103E0000F8077C003F000F000300000000000000E6
:103E10000000F03FFC3F7E3C3E3C1E3C1E3C3E3CD6
:103E20003C3CFC3CF03FE03FF03DF83C7C3C3E3C01
:103E30001E3C1F3C0F3C0000000000000000000082
:103E4000000000000000FC07FE1F0E3E003C003C8E
:103E5000003C003EC01FF80FFE037F001F000F0054
:103E60000F001F203E3CFC3FF01F00000000000040
:103E700000000000000000000000FFFFFFFFE00363
:103E8000E003E003E003E003E003E003E003E0031A
:103E9000E003E003E003E003E003E003E0030000ED
:103EA00000000000000000000000000000000F7C87
:103EB0000F7C0F7C0F7C0F7C0F7C0F7C0F7C0F7CAA
:103EC0000F7C0F7C0F7C0F7C1E3C1E3C3E3EFC1F7B
:103ED000F0070000000000000000000000000000EB
:103EE000000007F007F007F80F780F7C1E3C1E3C1F
:103EF0001E3E3C1E3C1F781F780FF80FF007F0079E
:103F0000F007E003E00300000000000000000000F4
:103F100000000000000003E003F003F007F0E7F307
:103F2000E7F3E7F3E773F77BF77FFF7F7F7F7F7F21
:103F30007E7F7E3F3E3E3E3E3E3E00000000000053
:103F40000000000000000000000007F80F7C1E3E8B
:103F50003E3E3C1FF80FF007E007E003E003F007E8
:103F6000F80F7C0F7C1E3E3C1F780F780FF000008E
:103F7000000000000000000000000000000007F842
:103F800007780F7C1E3C1E3E3C1F780FF80FF00791
:103F9000E003E003E003E003E003E003E003E00309
:103FA000E00300000000000000000000000000002E
:103FB0000000FF7FFF7F0F001F003E007C00F80025
:103FC000F000E001E003C007800F000F001E003E7C
:103FD000007CFF7FFF7F0000000000000000000069
:103FE000FF0780078007800780078007800780071A
:103FF0008007800780078007800780078007800789
:104000008007800780078007800780078007FF07F9
:10401000FF07000000780078003C003C001E001EF6
:10402000000F000F80078007C003C003E001E0011C
:10403000F000F000780078003C003C001E001E00FC
:104040000F000F0007000000F07FF000F000F0000C
:10405000F000F000F000F000F000F000F000F000E0
:10406000F000F000F000F000F000F000F000F000D0
:10407000F000F000F000F07FF07F0000C000C00111
:10408000C001E003E003F007F0077807780F380F6E
:104090003C1E3C1E1E3C1E3C0F380F78077800006B
:1040A0000000000000000000000000000000000010
:1040B0000000000000000000000000000000000000
:1040C00000000000000000000000000000000000F0
:1040D00000000000000000000000FFFFFFFF0000E4
:1040E00000000000F00000000000000000000000E0
:1040F00000000000000000000000000000000000C0
:1041000000000000000000000000000000000000AF
:10411000000000000000000000000000000000009F
:1041200000000000F80FFC3F7C3C3E003E003E00DB
:10413000FE07FE1F3E3E3E7C3E783E7C7E7CFF3F7F
:10414000CF1F00000000000000000000003C003C09
:10415000003C003C003C003CF83DFE3F3E3F1F3E23
:104160000F3C0F3C0F3C0F3C0F3C0F3C1F3C1E3CD8
:104170003E3FFC3FF03B000000000000000000005C
:10418000000000000000000000000000FE03FF0F20
:10419000871F003E003E003C007C007C007C003C11
:1041A000003E003E871FFF0FFE03000000000000DE
:1041B000000000001F001F001F001F001F001F0045
:1041C000FF07FF1F3F3E1F3C1F7C1F7C1F7C1F788B
:1041D0001F781F7C1F7C3F3C7F3EFF1FDF0F0000CE
:1041E00000000000000000000000000000000000CF
:1041F00000000000F803FC0F3E1F1E3E1F3C1F7C0A
:10420000FF7FFF7F007C007C003C003E071FFF0F0C
:10421000FE0300000000000000000000FF01E103B9
:10422000C003C007C007C007FF7FFF7FC007C007EC
:10423000C007C007C007C007C007C007C007C00746
:10424000C007C007C0070000000000000000000019
:10425000000000000000000000000000EF07FF1F4A
:104260007F3E1F3C1F7C1F7C1F781F781F781F7CA0
:104270001F7C3F3C7F3EFF1FDF0F1E001E001E0005
:104280007C38F83F003C003C003C003C003C003CDB
:10429000FC3DFE3F9E3F1F3F1F3E1F3C1F3C1F3CFF
:1042A0001F3C1F3C1F3C1F3C1F3C1F3C1F3C000091
:1042B0000000000000000000F001F001000000001C
:1042C00000000000E07FE07FE001E001E001E001AC
:1042D000E001E001E001E001E001E001E001E001D6
:1042E000E00100000000000000000000F800F800FD
:1042F0000000000000000000F83FF83FF800F80060
:10430000F800F800F800F800F800F800F800F800ED
:10431000F800F800F800F800F800F000F071E07F15
:10432000003C003C003C003C003C003C1F3C3E3C50
:104330007C3CF83CF03DE03DC03FC03FE03FF03DFD
:10434000F83C7C3C3E3C1F3C1F3C00000000000051
:1043500000000000F07FF001F001F001F001F00139
:10436000F001F001F001F001F001F001F001F001C5
:10437000F001F001F001F001F001F001F0010000A6
:10438000000000000000000000000000000000002D
:10439000000000009EF7FFFFFFFFFFFFE7FBE7F9CC
:1043A000C7F1C7F1C7F1C7F1C7F1C7F1C7F1C7F14D
:1043B000C7F1000000000000000000000000000045
:1043C0000000000000000000FC3DFE3F9E3F1F3F3C
:1043D0001F3E1F3C1F3C1F3C1F3C1F3C1F3C1F3C03
:1043E0001F3C1F3C1F3C00000000000000000000BC
:1043F000000000000000000000000000F007FC1FAB
:104400003E3E1F3C1F7C0F780F780F780F780F7897
:104410001F7C1F3C3E3EFC1FF00700000000000018
:10442000000000000000000000000000000000008C
:10443000F83DFE3F3E3F1F3E0F3C0F3C0F3C0F3C04
:104440000F3C0F3C1F3C1E3E3E3FFC3FF83F003CF4
:10445000003C003C003C003C00000000000000006C
:1044600000000000EE07FE1F7E3E1E3C1E7C1E78F4
:104470001E781E781E781E781E7C3E7C7E3EFE1FB7
:10448000DE0F1E001E001E001E001E0000000000A9
:1044900000000000000000007F1FFF1FE71FC71F74
:1044A000871F001F001F001F001F001F001F001F8D
:1044B000001F001F001F000000000000000000009F
:1044C000000000000000000000000000FC07FE1FCC
:1044D0000E1E003E003E003FE01FFC07FE003E00B7
:1044E0001E001E003E3CFC3FF01F000000000000CC
:1044F0000000000000000000000080078007800727
:10450000FF7FFF7F80078007800780078007800785
:104510008007800780078007C007FF03FF010000B6
:10452000000000000000000000000000000000008B
:10453000000000001E3C1E3C1E3C1E3C1E3C1E3C5F
:104540001E3C1E3C1E3C1E3C3E3C7E3CFE3EFE1F76
:10455000DE0F00000000000000000000000000006E
:10456000000000000000000007F00F780F781E3CEC
:104570001E3C1E3E3C1E3C1E780F780FF00FF007CD
:10458000F007E003E003000000000000000000006E
:1045900000000000000000000000000003F0E3F154
:1045A000E3F3E7F3F7F3F7F3F77F777F7F7F7F7F1F
:1045B0007F7F3E3E3E3E3E3E3E3E0000000000000D
:1045C00000000000000000000000000000000000EB
:1045D0000F7C1E3E3C3E3C1FF80FF007F007E00347
:1045E000F007F807F80F7C1E3E3E1F3C1F780000C6
:1045F00000000000000000000000000000000000BB
:104600000000000007F80F780F7C1E3C1E3C3C1E8B
:104610003C1E3C1F780FF80FF007F007E003E003A3
:10462000C003C003C0038007800F007F00000000AC
:104630000000000000000000FF3FFF3F1F003E00A1
:104640007C00F800F001E003C007800F001F001E8F
:10465000003CFF7FFF7F0000000000000000000022
:10466000FE01E003C003C003C003C003E001E0019A
:10467000E001C001C003803F803FC003C001E001F2
:10468000E001E001C003C003C003C003E003FE017A
:104690007E000000C001C001C001C001C001C00116
:1046A000C001C001C001C001C001C001C001C00102
:1046B000C001C001C001C001C001C001C001C001F2
:1046C000C001C001C0010000C03FE003E001E00103
:1046D000E001E001C001C003C003C001E001FE0031
:1046E000FE00E001C001C003C003C001E001E00121
:1046F000E001E001E003C03F003F000000000000D7
:1047000000000000000000000000000000000000A9
:104710000000073FC77FE773FFF17EF00000000055
:104720000000000000000000000000000000000089
:104730000000000000000000000000000000000079
:1047400000200020002000200020000000200000A9
:104750000050005000500000000000000000000069
:104760000050005000F8005000F8005000500000C9
:104770000020007800A00070002800F00020000059
:1047800000C000C800100020004000980018000081
:10479000004000A000A0004000A8009000680000B9
:1047A0000030003000200040000000000000000049
:1047B00000100020004000400040002000100000D9
:1047C00000400020001000100010002000400000F9
:1047D000002000A8007000F8007000A80020000071
:1047E00000000020002000F8002000200000000051
:1047F0000000000000000000003000300020000039
:1048000000000000000000F80000000000000000B0
:104810000000000000000000000000300030000038
:104820000000000800100020004000800000000090
:1048300000700088009800A800C800880070000080
:1048400000200060002000200020002000700000F8
:1048500000700088000800700080008000F80000F0
:1048600000F8000800100030000800880070000008
:10487000001000300050009000F800100010000000
:1048800000F8008000F000080008008800700000B8
:1048900000380040008000F00088008800700000B0
:1048A00000F8000800080010002000400080000010
:1048B0000070008800880070008800880070000088
:1048C00000700088008800780008001000E00000F8
:1048D0000000000000200000002000000000000098
:1048E0000000000000200000002000200040000028
:1048F0000008001000200040002000100008000008
:104900000000000000F8000000F8000000000000B7
:1049100000400020001000080010002000400000AF
:104920000070008800080030002000000020000017
:104930000070008800A800B800B000800078000077
:10494000002000500088008800F8008800880000DF
:1049500000F00088008800F00088008800F0000067
:1049600000700088008000800080008800700000D7
:1049700000F00088008800880088008800F00000AF
:1049800000F80080008000F00080008000F8000047
:1049900000F80080008000F00080008000800000AF
:1049A000007800880080008000980088007800006F
:1049B00000880088008800F80088008800880000CF
:1049C0000070002000200020002000200070000067
:1049D000003800100010001000100090006000006F
:1049E0000088009000A000C000A000900088000097
:1049F00000800080008000800080008000F80000BF
:104A0000008800D800A800A800A80088008800003E
:104A10000088008800C800A800980088008800006E
:104A200000700088008800880088008800700000FE
:104A300000F00088008800F0008000800080000006
:104A4000007000880088008800A8009000680000BE
:104A500000F00088008800F000A0009000880000AE
:104A6000007000880080007000080088007000005E
:104A700000F800A8002000200020002000200000F6
:104A80000088008800880088008800880070000086
:104A900000880088008800880088005000200000FE
:104AA00000880088008800A800A800A80050000026
:104AB0000088008800500020005000880088000016
:104AC0000088008800500020002000200020000006
:104AD00000F80008001000700040008000F800009E
:104AE0000078004000400040004000400078000096
:104AF00000000080004000200010000800000000BE
:104B0000007800080008000800080008007800008D
:104B1000002000500088000000000000000000009D
:104B200000000000000000000000000000F800008D
:104B30000060006000200010000000000000000085
:104B4000000000000060001000700090007800007D
:104B50000080008000B000C8008800C800B00000DD
:104B600000000000007000880080008800700000D5
:104B7000000800080068009800880098006800009D
:104B8000000000000070008800F800800070000045
:104B900000100028002000700020002000200000ED
:104BA00000000000007000980098006800080000F5
:104BB0000080008000B000C80088008800880000E5
:104BC0000020000000600020002000200070000095
:104BD00000100000001000100010009000600000A5
:104BE00000800080009000A000C000A000900000A5
:104BF0000060002000200020002000200070000045
:104C00000000000000D000A800A800A800A8000034
:104C10000000000000B000C8008800880088000084
:104C2000000000000070008800880088007000000C
:104C30000000000000B000C800C800B00080000004
:104C4000000000000068009800980068000800005C
:104C50000000000000B000C800800080008000005C
:104C600000000000007800800070000800F00000E4
:104C70000020002000F80020002000280010000084
:104C8000000000000088008800880098006800008C
:104C9000000000000088008800880050002000000C
:104CA000000000000088008800A800A80050000054
:104CB0000000000000880050002000500088000024
:104CC00000000000008800880078000800880000CC
:104CD0000000000000F800100020004000F8000074
:104CE00000100020002000400020002000100000E4
:104CF00000200020002000000020002000200000F4
:104D00000040002000200010002000200040000093
:104D1000004000A80010000000000000000000009B
:104D200047616D65000000006F766572000000004D
:104D3000596F75722053636F72653A0050726573D4
:104D400073206B65792042544E38000050726573B1
:104D500073206B6579204C656674204F55540000B4
:104D60000000000000000000000000000000000043
:104D7000FFFFFFFFFFFFFFFFFFFFFFFFFFFFFFFF43
:104D8000FFFFFFFFFFFFFFFFFFFFFFFFFFFFFFFF33
:104D90000000000000000000000000000000000013
:10514000000000000000000003000000000000005C
:105150000003000000000000000003000000000049
:105160000000000300000000000000000300000732
:10517000FF0000000003000007FF00000000030024
:105180000007FE0000000003000007FE0000000012
:1051900003000007FE0000000003000007FE0000FF
:1051A000000E03000007FE0000000F03000007FED2
:1051B0000000001F0300000FFE0000001B030000A2
:1051C0000F803C1F9F990300000F007E3FBF9B0391
:1051D00000000F007E3FBF9B0300000F007E7FBFDB
:1051E0009F0300000FFC7E7FBF9F0300000FFCFEAB
:1051F00079BF8F0300000FFCEE703F8F0300000F9C
:10520000FCEE700E1F0300000FFCEE7E0E1F03006D
:10521000000FFCEE7F0C1FC300001FFDCE7F0C1B98
:10522000C30FFFDFFDCE7F0C1BC30FFFDFFDCE7F63
:105230001C19830FFFDE01FE0F1C1F830FFFDE030F
:10524000FE071C1FC30FFFDE03FE071C1FC30FFF5B
:10525000DE03FEFF1C0CC30FFFDE038EFF1C0003EA
:105260000FFF9E038EFF1C00030FFF9E070EFE1C08
:1052700000031FFF800000FC0000031FFF800000F0
:10528000000000031FFF800000000000031F8000DB
:1052900000000F0000E31F8039CFE31F8E73FB1F58
:1052A0000039DFE71FCE73FB1F0039DFE73FCE7306
:1052B000FB1F80319FE73FCE77FB1FFF319FE73F0A
:1052C000CE77FB1FFF319CE73BCE77031FFF339C5C
:1052D0006779CC67033FFF739CE771CC67833FFF1F
:1052E0007398E671CC67F33FFF7398E671CCE7F3F0
:1052F0003FFF739FC671DCE7F33FFF739F8671DC4E
:10530000E7F33FFF73BF0E71DCE3F33FFF733F8EA4
:1053100071DCE0733F00733B8E739CE0733E00775B
:105320003B8E739CE8F33E007F3B8E7F9FCFF33E26
:10533000007F39CE7F9FCFF37E007F39CE7F1FCF96
:10534000F37E007E31CC3F0F8FE37E003C000000F7
:105350000703C37E00000000000000037E00000081
:105360000000000003000000000000000003000037
:105370000000000000000300000000000000000327
:105380000000000000000000007FE00000000001BD
:10539000FFF80000000007FFFC000000000FFFFE08
:1053A000000000000FFFFF000000001FFFFFC00013
:1053B00000003FFFFFE00000007FFFFFE000000073
:1053C000FFFFFFE0000000FFFFFFF0000001FFFF14
:1053D000FFF0000001FFFFFFF0000001FFFFFFF8FA
:1053E000000001FFFFFFF8000001FFFFFFFC0000CD
:1053F00001FFFFFFF8000001FFFFFFFC000001FFBD
:10540000FFFFFC000001FFFFFFF8000001FFFFFFAE
:10541000F8000001FFFFFFF8000003FFFFFFF0F0BE
:105420000001FFF807F9E800001FE1F7F9F80000B4
:105430000FE7FFF9FC0001E7F62FFBFC000003FB80
:105440000FFBFC00004FFFFFFBF800007FFFFFFB9E
:10545000F800027FFFFFF3F80003FFFFFFF3F800FF
:1054600003FFFFFFFBF00003FFFFFFF3E00003FF7C
:10547000FFFFF3C00001FFFFFFF1800001FFFFFF0E
:10548000F2000001FFFFFFF3000000FFFFFFF30049
:105490000000E30FFFF3000000E07FFFE3000000E7
:1054A000F1FFFFE300000073FFFFE30000003FFF98
:1054B000FFE70000001FFFFFC7000000000FFFCF45
:1054C000000000001FFF0F0000001FFFFE1F000074
:1054D0000007FFF41F000000001FE03F0000000075
:1054E0000FE03FE0000001FFE07FC0000007FFC0C9
:1054F0007FC0000003FF80FFC0000000FF01FF80AD
:105500000000000003FF800000000007FF00000013
:1055100000000FFF00000000001FFE000000000060
:105520007FFE0000000000FFFC0000000001FFFC07
:105530000000000007FFF8000000001FFFF8000057
:105540000000C0000FFFFFE07F80FFF0FF01C630CA
:10555000F1FF8398E1FF83F8E1FF83F8E1FF83F82F
:10556000E1FF83F8E1FF83F8F1FF8398FF01C63084
:105570007F80FFF00FFFFFE00000C00030313233CA
:105580003435363738396162636465666768696ADD
:105590006B6C6D6E6F707172737475767778797AE3
:0455A0000000000007
:1055A4000608000030470008070A00001C1F000816
:1055B4000B12000088260008101A0000E4330008CB
:1055C40000102030336699FEC80484B4E60000005D
:1055D4000500000000060C12181E242A30360000B4
:0400000508000000EF
:00000001FF
